{
  "contractName": "Leave",
  "abi": [
    {
      "constant": true,
      "inputs": [
        {
          "name": "",
          "type": "address"
        }
      ],
      "name": "users",
      "outputs": [
        {
          "name": "id",
          "type": "string"
        },
        {
          "name": "account",
          "type": "address"
        },
        {
          "name": "noOfLeaves",
          "type": "uint256"
        }
      ],
      "payable": false,
      "stateMutability": "view",
      "type": "function"
    },
    {
      "constant": true,
      "inputs": [
        {
          "name": "",
          "type": "uint256"
        }
      ],
      "name": "leaves",
      "outputs": [
        {
          "name": "applicant",
          "type": "address"
        },
        {
          "name": "startDate",
          "type": "uint256"
        },
        {
          "name": "endDate",
          "type": "uint256"
        },
        {
          "name": "status",
          "type": "uint8"
        }
      ],
      "payable": false,
      "stateMutability": "view",
      "type": "function"
    },
    {
      "constant": true,
      "inputs": [],
      "name": "admin",
      "outputs": [
        {
          "name": "",
          "type": "address"
        }
      ],
      "payable": false,
      "stateMutability": "view",
      "type": "function"
    },
    {
      "inputs": [],
      "payable": false,
      "stateMutability": "nonpayable",
      "type": "constructor"
    },
    {
      "constant": true,
      "inputs": [
        {
          "name": "x",
          "type": "address"
        }
      ],
      "name": "userExists",
      "outputs": [
        {
          "name": "",
          "type": "bool"
        }
      ],
      "payable": false,
      "stateMutability": "view",
      "type": "function"
    },
    {
      "constant": false,
      "inputs": [
        {
          "name": "idx",
          "type": "uint256"
        }
      ],
      "name": "approveLeave",
      "outputs": [
        {
          "name": "",
          "type": "bool"
        }
      ],
      "payable": false,
      "stateMutability": "nonpayable",
      "type": "function"
    },
    {
      "constant": false,
      "inputs": [
        {
          "name": "idx",
          "type": "uint256"
        }
      ],
      "name": "rejectLeave",
      "outputs": [
        {
          "name": "",
          "type": "bool"
        }
      ],
      "payable": false,
      "stateMutability": "nonpayable",
      "type": "function"
    },
    {
      "constant": false,
      "inputs": [
        {
          "name": "_id",
          "type": "string"
        }
      ],
      "name": "createAccount",
      "outputs": [
        {
          "name": "",
          "type": "bool"
        }
      ],
      "payable": false,
      "stateMutability": "nonpayable",
      "type": "function"
    },
    {
      "constant": false,
      "inputs": [
        {
          "name": "_startDate",
          "type": "uint256"
        },
        {
          "name": "_endDate",
          "type": "uint256"
        }
      ],
      "name": "applyForLeave",
      "outputs": [
        {
          "name": "",
          "type": "bool"
        }
      ],
      "payable": false,
      "stateMutability": "nonpayable",
      "type": "function"
    },
    {
      "constant": true,
      "inputs": [],
      "name": "getAllLeaves",
      "outputs": [
        {
          "name": "",
          "type": "bool"
        },
        {
          "name": "",
          "type": "address[]"
        },
        {
          "name": "",
          "type": "uint256[]"
        },
        {
          "name": "",
          "type": "uint256[]"
        },
        {
          "name": "",
          "type": "uint8[]"
        }
      ],
      "payable": false,
      "stateMutability": "view",
      "type": "function"
    },
    {
      "constant": true,
      "inputs": [
        {
          "name": "i",
          "type": "uint256"
        }
      ],
      "name": "showLeave",
      "outputs": [
        {
          "name": "",
          "type": "bool"
        },
        {
          "name": "",
          "type": "address"
        },
        {
          "name": "",
          "type": "uint256"
        },
        {
          "name": "",
          "type": "uint256"
        },
        {
          "name": "",
          "type": "uint8"
        }
      ],
      "payable": false,
      "stateMutability": "view",
      "type": "function"
    },
    {
      "constant": true,
      "inputs": [],
      "name": "getMyLeaves",
      "outputs": [
        {
          "name": "",
          "type": "bool"
        },
        {
          "name": "",
          "type": "address[]"
        },
        {
          "name": "",
          "type": "uint256[]"
        },
        {
          "name": "",
          "type": "uint256[]"
        },
        {
          "name": "",
          "type": "uint8[]"
        }
      ],
      "payable": false,
      "stateMutability": "view",
      "type": "function"
    }
  ],
  "bytecode": "0x60806040523480156200001157600080fd5b50336000806101000a81548173ffffffffffffffffffffffffffffffffffffffff021916908373ffffffffffffffffffffffffffffffffffffffff1602179055506060604051908101604052806040805190810160405280600581526020017f61646d696e00000000000000000000000000000000000000000000000000000081525081526020016000809054906101000a900473ffffffffffffffffffffffffffffffffffffffff1673ffffffffffffffffffffffffffffffffffffffff1681526020016000815250600160008060009054906101000a900473ffffffffffffffffffffffffffffffffffffffff1673ffffffffffffffffffffffffffffffffffffffff1673ffffffffffffffffffffffffffffffffffffffff168152602001908152602001600020600082015181600001908051906020019062000159929190620001b4565b5060208201518160010160006101000a81548173ffffffffffffffffffffffffffffffffffffffff021916908373ffffffffffffffffffffffffffffffffffffffff1602179055506040820151816002015590505062000263565b828054600181600116156101000203166002900490600052602060002090601f016020900481019282601f10620001f757805160ff191683800117855562000228565b8280016001018555821562000228579182015b82811115620002275782518255916020019190600101906200020a565b5b5090506200023791906200023b565b5090565b6200026091905b808211156200025c57600081600090555060010162000242565b5090565b90565b6115e280620002736000396000f3006080604052600436106100ae576000357c0100000000000000000000000000000000000000000000000000000000900463ffffffff1680624a74cc146100b35780630e666e49146100f85780631a37ebbc1461015357806328ea02b0146101ee578063298daf5b1461023d57806368121819146102be578063a39bc1ae1461040d578063a6be04eb14610452578063a87430ba146105a1578063d455a79d14610697578063f851a44014610727575b600080fd5b3480156100bf57600080fd5b506100de6004803603810190808035906020019092919050505061077e565b604051808215151515815260200191505060405180910390f35b34801561010457600080fd5b50610139600480360381019080803573ffffffffffffffffffffffffffffffffffffffff169060200190929190505050610880565b604051808215151515815260200191505060405180910390f35b34801561015f57600080fd5b5061017e600480360381019080803590602001909291905050506108e3565b60405180861515151581526020018573ffffffffffffffffffffffffffffffffffffffff1673ffffffffffffffffffffffffffffffffffffffff1681526020018481526020018381526020018260028111156101d657fe5b60ff1681526020019550505050505060405180910390f35b3480156101fa57600080fd5b5061022360048036038101908080359060200190929190803590602001909291905050506109db565b604051808215151515815260200191505060405180910390f35b34801561024957600080fd5b506102a4600480360381019080803590602001908201803590602001908080601f0160208091040260200160405190810160405280939291908181526020018383808284378201915050505050509192919290505050610b4a565b604051808215151515815260200191505060405180910390f35b3480156102ca57600080fd5b506102d3610c50565b604051808615151515815260200180602001806020018060200180602001858103855289818151815260200191508051906020019060200280838360005b8381101561032c578082015181840152602081019050610311565b50505050905001858103845288818151815260200191508051906020019060200280838360005b8381101561036e578082015181840152602081019050610353565b50505050905001858103835287818151815260200191508051906020019060200280838360005b838110156103b0578082015181840152602081019050610395565b50505050905001858103825286818151815260200191508051906020019060200280838360005b838110156103f25780820151818401526020810190506103d7565b50505050905001995050505050505050505060405180910390f35b34801561041957600080fd5b5061043860048036038101908080359060200190929190505050610f3c565b604051808215151515815260200191505060405180910390f35b34801561045e57600080fd5b5061046761103f565b604051808615151515815260200180602001806020018060200180602001858103855289818151815260200191508051906020019060200280838360005b838110156104c05780820151818401526020810190506104a5565b50505050905001858103845288818151815260200191508051906020019060200280838360005b838110156105025780820151818401526020810190506104e7565b50505050905001858103835287818151815260200191508051906020019060200280838360005b83811015610544578082015181840152602081019050610529565b50505050905001858103825286818151815260200191508051906020019060200280838360005b8381101561058657808201518184015260208101905061056b565b50505050905001995050505050505050505060405180910390f35b3480156105ad57600080fd5b506105e2600480360381019080803573ffffffffffffffffffffffffffffffffffffffff16906020019092919050505061139e565b60405180806020018473ffffffffffffffffffffffffffffffffffffffff1673ffffffffffffffffffffffffffffffffffffffff168152602001838152602001828103825285818151815260200191508051906020019080838360005b8381101561065a57808201518184015260208101905061063f565b50505050905090810190601f1680156106875780820380516001836020036101000a031916815260200191505b5094505050505060405180910390f35b3480156106a357600080fd5b506106c260048036038101908080359060200190929190505050611480565b604051808573ffffffffffffffffffffffffffffffffffffffff1673ffffffffffffffffffffffffffffffffffffffff16815260200184815260200183815260200182600281111561071057fe5b60ff16815260200194505050505060405180910390f35b34801561073357600080fd5b5061073c6114ec565b604051808273ffffffffffffffffffffffffffffffffffffffff1673ffffffffffffffffffffffffffffffffffffffff16815260200191505060405180910390f35b60008060009054906101000a900473ffffffffffffffffffffffffffffffffffffffff1673ffffffffffffffffffffffffffffffffffffffff163373ffffffffffffffffffffffffffffffffffffffff161415156107df576000905061087b565b600060028111156107ec57fe5b6002838154811015156107fb57fe5b906000526020600020906004020160030160009054906101000a900460ff16600281111561082557fe5b141515610835576000905061087b565b6002808381548110151561084557fe5b906000526020600020906004020160030160006101000a81548160ff0219169083600281111561087157fe5b0217905550600190505b919050565b600080600160008473ffffffffffffffffffffffffffffffffffffffff1673ffffffffffffffffffffffffffffffffffffffff16815260200190815260200160002060000180546001816001161561010002031660029004905014159050919050565b6000806000806000806000600280549050881015156109125760008183846000965096509650965096506109d0565b600160028981548110151561092357fe5b906000526020600020906004020160000160009054906101000a900473ffffffffffffffffffffffffffffffffffffffff1660028a81548110151561096457fe5b90600052602060002090600402016001015460028b81548110151561098557fe5b90600052602060002090600402016002015460028c8154811015156109a657fe5b906000526020600020906004020160030160009054906101000a900460ff16965096509650965096505b505091939590929450565b60006109e633610880565b15156109f55760009050610b44565b60026080604051908101604052803373ffffffffffffffffffffffffffffffffffffffff16815260200185815260200184815260200160006002811115610a3857fe5b8152509080600181540180825580915050906001820390600052602060002090600402016000909192909190915060008201518160000160006101000a81548173ffffffffffffffffffffffffffffffffffffffff021916908373ffffffffffffffffffffffffffffffffffffffff160217905550602082015181600101556040820151816002015560608201518160030160006101000a81548160ff02191690836002811115610ae557fe5b0217905550505050600160003373ffffffffffffffffffffffffffffffffffffffff1673ffffffffffffffffffffffffffffffffffffffff16815260200190815260200160002060020160008154809291906001019190505550600190505b92915050565b6000610b5533610880565b15610b635760009050610c4b565b6060604051908101604052808381526020013373ffffffffffffffffffffffffffffffffffffffff1681526020016000815250600160003373ffffffffffffffffffffffffffffffffffffffff1673ffffffffffffffffffffffffffffffffffffffff1681526020019081526020016000206000820151816000019080519060200190610bf1929190611511565b5060208201518160010160006101000a81548173ffffffffffffffffffffffffffffffffffffffff021916908373ffffffffffffffffffffffffffffffffffffffff16021790555060408201518160020155905050600190505b919050565b600060608060608060006060806060806000600280549050955085604051908082528060200260200182016040528015610c995781602001602082028038833980820191505090505b50945085604051908082528060200260200182016040528015610ccb5781602001602082028038833980820191505090505b50935085604051908082528060200260200182016040528015610cfd5781602001602082028038833980820191505090505b50925085604051908082528060200260200182016040528015610d2f5781602001602082028038833980820191505090505b5091506000809054906101000a900473ffffffffffffffffffffffffffffffffffffffff1673ffffffffffffffffffffffffffffffffffffffff163373ffffffffffffffffffffffffffffffffffffffff16141515610d9d576000858585859a509a509a509a509a50610f2f565b600090505b85811015610f1e57600281815481101515610db957fe5b906000526020600020906004020160000160009054906101000a900473ffffffffffffffffffffffffffffffffffffffff168582815181101515610df957fe5b9060200190602002019073ffffffffffffffffffffffffffffffffffffffff16908173ffffffffffffffffffffffffffffffffffffffff1681525050600281815481101515610e4457fe5b9060005260206000209060040201600101548482815181101515610e6457fe5b9060200190602002018181525050600281815481101515610e8157fe5b9060005260206000209060040201600201548382815181101515610ea157fe5b9060200190602002018181525050600281815481101515610ebe57fe5b906000526020600020906004020160030160009054906101000a900460ff168282815181101515610eeb57fe5b906020019060200201906002811115610f0057fe5b90816002811115610f0d57fe5b815250508080600101915050610da2565b6001858585859a509a509a509a509a505b5050505050509091929394565b60008060009054906101000a900473ffffffffffffffffffffffffffffffffffffffff1673ffffffffffffffffffffffffffffffffffffffff163373ffffffffffffffffffffffffffffffffffffffff16141515610f9d576000905061103a565b60006002811115610faa57fe5b600283815481101515610fb957fe5b906000526020600020906004020160030160009054906101000a900460ff166002811115610fe357fe5b141515610ff3576000905061103a565b600160028381548110151561100457fe5b906000526020600020906004020160030160006101000a81548160ff0219169083600281111561103057fe5b0217905550600190505b919050565b60006060806060806000606080606080600080600160003373ffffffffffffffffffffffffffffffffffffffff1673ffffffffffffffffffffffffffffffffffffffff168152602001908152602001600020600201549650866040519080825280602002602001820160405280156110c65781602001602082028038833980820191505090505b509550866040519080825280602002602001820160405280156110f85781602001602082028038833980820191505090505b5094508660405190808252806020026020018201604052801561112a5781602001602082028038833980820191505090505b5093508660405190808252806020026020018201604052801561115c5781602001602082028038833980820191505090505b509250600087141561117d576000868686869b509b509b509b509b50611390565b60009150600090505b8681101561137f573373ffffffffffffffffffffffffffffffffffffffff166002828154811015156111b457fe5b906000526020600020906004020160000160009054906101000a900473ffffffffffffffffffffffffffffffffffffffff1673ffffffffffffffffffffffffffffffffffffffff1614156113725760028181548110151561121157fe5b906000526020600020906004020160000160009054906101000a900473ffffffffffffffffffffffffffffffffffffffff16868381518110151561125157fe5b9060200190602002019073ffffffffffffffffffffffffffffffffffffffff16908173ffffffffffffffffffffffffffffffffffffffff168152505060028181548110151561129c57fe5b90600052602060002090600402016001015485838151811015156112bc57fe5b90602001906020020181815250506002818154811015156112d957fe5b90600052602060002090600402016002015484838151811015156112f957fe5b906020019060200201818152505060028181548110151561131657fe5b906000526020600020906004020160030160009054906101000a900460ff16838381518110151561134357fe5b90602001906020020190600281111561135857fe5b9081600281111561136557fe5b8152505081806001019250505b8080600101915050611186565b6001868686869b509b509b509b509b505b505050505050509091929394565b6001602052806000526040600020600091509050806000018054600181600116156101000203166002900480601f01602080910402602001604051908101604052809291908181526020018280546001816001161561010002031660029004801561144a5780601f1061141f5761010080835404028352916020019161144a565b820191906000526020600020905b81548152906001019060200180831161142d57829003601f168201915b5050505050908060010160009054906101000a900473ffffffffffffffffffffffffffffffffffffffff16908060020154905083565b60028181548110151561148f57fe5b90600052602060002090600402016000915090508060000160009054906101000a900473ffffffffffffffffffffffffffffffffffffffff16908060010154908060020154908060030160009054906101000a900460ff16905084565b6000809054906101000a900473ffffffffffffffffffffffffffffffffffffffff1681565b828054600181600116156101000203166002900490600052602060002090601f016020900481019282601f1061155257805160ff1916838001178555611580565b82800160010185558215611580579182015b8281111561157f578251825591602001919060010190611564565b5b50905061158d9190611591565b5090565b6115b391905b808211156115af576000816000905550600101611597565b5090565b905600a165627a7a723058200854e43994fe73a1a34f0a0e2405982a366997c3806671e30c1f30e880f045cd0029",
  "source": "pragma solidity ^0.4.0;\n\n/**\n * Leave Contract\n */\ncontract Leave {\n\n\t//address of the account used to deploy contract \n\t//this account will be given to admin of the system\n\taddress public admin;\n\n\tenum statusChoices {\n\t\tAPPLIED,\n\t\tAPPROVED,\n\t\tREJECTED\n\t}\n\n\tstruct user{\n\t\tstring id;\n\t\taddress account;\n\t\tuint noOfLeaves;\n\t}\n\n\tstruct leaveApplication {\n\t\t// address of aplicant\n\t\taddress applicant;\n\n\t\t//Leave is applied for both dates inclusive\n\t\tuint startDate;\n\t\tuint endDate;\n\n\t\t//status of leave\n\t\tstatusChoices status;\n\t}\n\n\tmapping(address => user) public users;\n\tleaveApplication[] public leaves;\n\n\tconstructor() public {\n\t\tadmin = msg.sender;\n\t\tusers[admin] = user({\n\t\t\t\tid : \"admin\",\n\t\t\t\taccount : admin,\n\t\t\t\tnoOfLeaves: 0\n\t\t\t});\n\n\t}\t\n\t//////////////////////////////////////////////////////////////////////////////////////////////\n\tfunction strConcat(string _a, string _b, string _c, string _d, string _e) internal pure returns (string){\n\t    bytes memory _ba = bytes(_a);\n\t    bytes memory _bb = bytes(_b);\n\t    bytes memory _bc = bytes(_c);\n\t    bytes memory _bd = bytes(_d);\n\t    bytes memory _be = bytes(_e);\n\t    string memory abcde = new string(_ba.length + _bb.length + _bc.length + _bd.length + _be.length);\n\t    bytes memory babcde = bytes(abcde);\n\t    uint k = 0;\n\t    for (uint i = 0; i < _ba.length; i++) babcde[k++] = _ba[i];\n\t    for (i = 0; i < _bb.length; i++) babcde[k++] = _bb[i];\n\t    for (i = 0; i < _bc.length; i++) babcde[k++] = _bc[i];\n\t    for (i = 0; i < _bd.length; i++) babcde[k++] = _bd[i];\n\t    for (i = 0; i < _be.length; i++) babcde[k++] = _be[i];\n\t    return string(babcde);\n\t}\n\n\tfunction strConcat(string _a, string _b, string _c, string _d) internal pure returns (string) {\n\t    return strConcat(_a, _b, _c, _d, \"\");\n\t}\n\n\tfunction strConcat(string _a, string _b, string _c) internal pure returns (string) {\n\t    return strConcat(_a, _b, _c, \"\", \"\");\n\t}\n\n\tfunction strConcat(string _a, string _b) internal pure returns (string) {\n\t    return strConcat(_a, _b, \"\", \"\", \"\");\n\t}\n\n\tfunction uint2str(uint i) internal pure returns (string){\n\t    if (i == 0) return \"0\";\n\t    uint j = i;\n\t    uint length;\n\t    while (j != 0){\n\t        length++;\n\t        j /= 10;\n\t    }\n\t    bytes memory bstr = new bytes(length);\n\t    uint k = length - 1;\n\t    while (i != 0){\n\t        bstr[k--] = byte(48 + i % 10);\n\t        i /= 10;\n\t    }\n\t    return string(bstr);\n\t}\n\n\tfunction bytes32ToString (bytes32 data) internal pure returns (string) {\n\t    bytes memory bytesString = new bytes(32);\n\t    for (uint j=0; j<32; j++) {\n\t        byte char = byte(bytes32(uint(data) * 2 ** (8 * j)));\n\t        if (char != 0) {\n\t            bytesString[j] = char;\n\t        }\n\t    }\n\t    return string(bytesString);\n\t}\n\t//////////////////////////////////////////////////////////////////////////////////////////////\n\n\tfunction userExists(address x) public view returns (bool) {\n\t\treturn (bytes(users[x].id).length != 0);\n\t}\n\n\tfunction approveLeave(uint idx) public returns (bool) {\n\t\tif(msg.sender != admin)return false;\n\t\telse if (leaves[idx].status != statusChoices.APPLIED) return false;\n\t\tleaves[idx].status = statusChoices.APPROVED;\n\t\treturn true;\n\t}\n\n\tfunction rejectLeave(uint idx) public returns (bool) {\n\t\tif(msg.sender != admin)return false;\n\t\telse if (leaves[idx].status != statusChoices.APPLIED) return false;\n\t\tleaves[idx].status = statusChoices.REJECTED;\n\t\treturn true;\n\t}\n\n\tfunction createAccount(string _id) public returns (bool){\n\t\tif(userExists(msg.sender))return false;\n\t\tusers[msg.sender] = user({\n\t\t\t\tid : _id,\n\t\t\t\taccount : msg.sender,\n\t\t\t\tnoOfLeaves: 0\n\t\t\t});\n\t\treturn true;\n\t}\n\n\tfunction applyForLeave(uint256 _startDate, uint256 _endDate) public returns (bool) {\n\t\tif(!userExists(msg.sender))return false;\n\t\tleaves.push(leaveApplication({\n\t\t\tapplicant : msg.sender,\n\t\t\tstartDate : _startDate,\n\t\t\tendDate : _endDate,\n\t\t\tstatus : statusChoices.APPLIED\n\t\t}));\n\t\tusers[msg.sender].noOfLeaves++;\n\t\treturn true;\n\t}\n\n\tfunction getAllLeaves() public view returns (bool, address[] memory,uint[] memory,uint[] memory,statusChoices[] memory) {\n\t\tuint siz = leaves.length;\n\t\taddress[] memory tempAddress = new address[](siz);\n\t\tuint[] memory tempStartDate = new uint[](siz);\n\t\tuint[] memory tempEndDate = new uint[](siz);\n\t\tstatusChoices[] memory tempStatusChoices = new statusChoices[](siz);\n\t\tif (msg.sender != admin) {\n\t\t\treturn (false,tempAddress,tempStartDate,tempEndDate,tempStatusChoices);\n\t\t}\n\t\tfor (uint i=0;i<siz;i++){\n\t\t\ttempAddress[i]=leaves[i].applicant;\n\t\t\ttempStartDate[i]=leaves[i].startDate;\n\t\t\ttempEndDate[i]=leaves[i].endDate;\n\t\t\ttempStatusChoices[i]=leaves[i].status;\n\t\t}\n\t\treturn (true,tempAddress,tempStartDate,tempEndDate,tempStatusChoices);\n\t}\n\n\tfunction showLeave(uint i) public view returns (bool, address , uint , uint , statusChoices) {\n\t\tuint temp1;\n\t\taddress temp2;\n\t\tif(i>=leaves.length)return (false,temp2,temp1,temp1,statusChoices.APPLIED);\n\t\treturn (true,leaves[i].applicant,leaves[i].startDate,leaves[i].endDate,leaves[i].status);\n\t}\n\n\tfunction getMyLeaves() public view returns (bool, address[] memory,uint[] memory,uint[] memory,statusChoices[] memory) {\n\t\tuint siz = users[msg.sender].noOfLeaves;\n\t\taddress[] memory tempAddress = new address[](siz);\n\t\tuint[] memory tempStartDate = new uint[](siz);\n\t\tuint[] memory tempEndDate = new uint[](siz);\n\t\tstatusChoices[] memory tempStatusChoices = new statusChoices[](siz);\n\t\tif(siz==0)return (false,tempAddress,tempStartDate,tempEndDate,tempStatusChoices);\n\t\tuint ct=0;\n\t\tfor (uint i=0;i<siz;i++){\n\t\t\tif(leaves[i].applicant == msg.sender){\n\t\t\t\ttempAddress[ct]=leaves[i].applicant;\n\t\t\t\ttempStartDate[ct]=leaves[i].startDate;\n\t\t\t\ttempEndDate[ct]=leaves[i].endDate;\n\t\t\t\ttempStatusChoices[ct]=leaves[i].status;\n\t\t\t\tct++;\t\n\t\t\t}\n\t\t}\n\t\treturn (true,tempAddress,tempStartDate,tempEndDate,tempStatusChoices);\n\n\t\t// uint[] memory ans = new uint[](users[msg.sender].noOfLeaves);\n\t\t// uint siz = leaves.length;\n\t\t// uint ct=0;\n\t\t// for (uint i=0;i<siz;i++){\n\t\t// \tif(leaves[i].applicant == msg.sender){\n\t\t// \t\tans[ct++]=i;\n\t\t// \t}\n\t\t// }\n\t\t// return ans;\n\t}\n\n}\n\n",
  "sourcePath": "/home/vinayak/Development/BTP7/API based blockchain webapp/Leave/contracts/Leave.sol",
  "compiler": {
    "name": "solc",
    "version": "0.4.24+commit.e67f0147.Emscripten.clang"
  },
  "schemaVersion": "2.0.1",
  "updatedAt": "2018-11-21T09:48:11.904Z"
}